:101BD100252E3130670020202020202020202020A9
:101BE100202020202020006D6178203235352063AF
:101BF10068617221003C3E43533738392B34353606
:101C01002D31323378302E2F3D2829425337383940
:101C1100343536313233302E2F2B2D78282942435B
:021C2100534F1F
:101E7A008104008105018100008103008101018143
:021E8A00020054
:101D3C007841E4F208EFF20874FEF2087400F2083D
:101D4C007406F27838E2FB08E2FA08E2F922EBF2C8
:101D5C0008EAF208E9F2227B017A00796C227BFE18
:051D6C007A0079272236
:101E61007804E26006EFC394105007EF901BFA93D9
:091E7100FF22EF901BE693FF2213
:051CB900783C121D5AE9
:101CBE00C37842E29DFF18E29CFE7846F208EFF2EE
:101CCE00783CE2FB08E2FA08E22DF9EA3CFA784B9E
:101CDE00121D5A08EEF208EFF27843121D51121A35
:101CEE00307843121D5108E2FE08E2F5828E83E43D
:031CFE0002064E8D
:041DEA00783CEFF260
:101DEE00121F73E4783DF2783CE2FF08E2C39F5085
:0D1DFE000C7F01121F29783DE204F280EAFB
:011E0B0022B4
:051B03007838121D5AA4
:101B0800121EC0783BEFF2C3940E4019E2FF24F294
:101B18007802F2FD7C00121D3C121CB9121B5C7885
:101B280001740EF222783BE2FF121D3CE4FDFC1228
:101B38001CB9121F6E783BE27008780104F2FF02AC
:101B48001DEA121B5C7BFE7A007906121EC0EF1498
:031B58007801F21F
:0F1B5B00227BFE7A007906E4FD7F01121A9B229D
:0C1B6A00783BECF208EDF27838121D5ABE
:101B7600121EC0783DEEF208EFF2783BE2FE08E274
:101B8600FF783EE224FFFD18E234FFFCC3EF9DEC34
:101B96006480F8EE648098501B7838121D518F824D
:101BA6008E83A312060F8F828E8312064E0FBF00FE
:101BB600010E80CD7838121D51783EE224FFFF18C1
:0B1BC600E234FF8F82F583E402064E3C
:101EFB00740E2FF582741C3EF583E493FF020D24C0
:101D7100121F5BE4FB7D017F01121E2A12119BEFF2
:101D8100F46006121E61120D24781CE2F460ED78F5
:0F1D910021E2FF7E00121EFB781C74FFF280DD42
:100D24007822EFF2645370237804E270047F018028
:100D3400027F007804EFF260047B7380027B20E47E
:100D4400FDFF121E0C7801E2020E3A7822E264439F
:100D54007020121F6E7804E260047B7380027B2093
:100D6400E4FDFF121E0C78017401F2E490006CF0B3
:100D740018F27822E2B43C157801E26401700302AF
:100D84000EE2E4FF121F297801E214F2227822E233
:100D9400B43E157801E2640F7003020EE27F011283
:100DA4001F297801E204F2227822E26442702312BD
:100DB4001D63121EC07803EFF27003020EE2121DCF
:100DC400637800E2FD7C00121B6A7800E214F202F0
:090DD4000EDC7822E2643D70613E
:100DDD00121D63121F3778231206B7783B74FFF28A
:100DED0008741BF20874D1F27823E2FC08E2FD08C6
:100DFD00E2FE08E2FF783E1206B7121D6A120912D2
:100E0D00121D6A121EC07837EFF27BFF7A1B79D75D
:100E1D007D01E4FF121A9B7837E2FFC374109FFF28
:100E2D00121D6A7D01121A9B7801E22402FF021D38
:010E3D00EACA
:100E3E007822E2644F70247805E26006E4FBFDFF41
:100E4E008006E4FB7D017F01121E2A7805E2700404
:100E5E007F0180027F007805EFF2227822E2FFC345
:100E6E0094304006EFD3943940267822E2FF642B6B
:100E7E00601EEF642D6019EF64786014EF642F60CC
:100E8E000FEF6428600AEF64296005EF642E70444A
:100E9E00121D63121EC0C3EF94FFEE9400400D7B33
:100EAE00FF7A1B79E87D01E4FF021A9B7822E2FFAC
:100EBE007800E2FE04F2746C2EF582E43400F583C1
:100ECE00EFF0E2246CF582E43400F583E4F0121DB9
:050EDE0063121B03225A
:03000300021D01DA
:101D0100C0E0C0F0C083C082C0D075D000C000C0A8
:101D110001C002C003C004C005C006C007121547B8
:101D2100D007D006D005D004D003D002D001D00016
:0B1D3100D0D0D082D083D0F0D0E032C0
:0C1F4400AD077F647E00121DDFC2A722E3
:101DC7007F0A7E00121DDFC2A57F0A7E00121DDF7B
:081DD700AF058F807F0A7E003A
:0B1DDF00EF1FAC0670011E4C70F622D6
:101ED500121F44121DDBC2A6121DC7D2A77F3212E4
:031EE5001F482271
:101EE800121F44121DDBD2A6121DC7D2A77F3212C1
:031EF8001F48225E
:0A1F5B007F38121ED57F06021ED546
:101E2A007E08EF6004EE4404FEED6004EE4402FE18
:0C1E3A00EB6004EE4401FEAF06021ED572
:0E1F2900EF60047B1480027B10AF03021ED514
:051F6E007F01021ED5F9
:051F73007F02021ED5F3
:101E0C007E80EF540FFFED5401FDEE4FFEED6004AC
:0E1E1C00EE4440FEAF06121ED5AF03021EE8D4
:0E1A9B00783DEBF208EAF208E9F2783CEFF24F
:101AA900540FF2ED54017841F27841E2C3940250A7
:101AB90048783CE27840F27840E2FFC39410503213
:101AC900783DE2FB08E2FA08E2F91205F6602378AC
:101AD90041E2FD783DE2FB0808E2F92401F218E24F
:101AE900FA3400F21205F6FB121E0C7840E204F2F9
:091AF90080C57841E204F280B0DE
:011B020022C0
:031E8C00811400BE
:041F0B007FE87E03EA
:0B1F0F00EF1FAC0670011E4C70F622A4
:10119B00782274FFF27590F7E59064F7602F121FB9
:1011AB000BAF90EF2449601224E0601524F0601817
:1011BB0024707019E47822F2801378227404F28080
:1011CB000C78227408F280057822740CF2E590B446
:1011DB00F7FB7590FBE59064FB6030121F0BAF9033
:1011EB00EF2445601324E0601624F060192470701E
:1011FB001A78227401F2801378227405F2800C782D
:10120B00227409F280057822740DF2E590B4FBFB91
:10121B007590FDE59064FD6030121F0BAF90EF24CD
:10122B0043601324E0601624F060192470701A7860
:10123B00227402F2801378227406F2800C782274E6
:10124B000AF280057822740EF2E590B4FDFB7590DE
:10125B00FEE59064FE6030121F0BAF90EF244260EE
:10126B001324E0601624F060192470701A7822742D
:10127B0003F2801378227407F2800C7822740BF23D
:10128B0080057822740FF2E590B4FEFB20B10E12AC
:10129B001F0B30B1FD121F0B78227410F220B00E11
:1012AB00121F0B30B0FD121F0B78227411F220B2FB
:1012BB000E121F0B30B2FD121F0B78227412F2208C
:1012CB00B30E121F0B30B3FD121F0B78227413F2E7
:0412DB007822E2FF94
:0112DF0022EC
:10193E0075900FE590640F6071121F0BE590640FA8
:10194E00606C75900FAF90EF24F5601124FE60145B
:10195E0014601824077019E47814F2801378147444
:10196E0001F2800C78147402F2800578147403F27C
:10197E007590F0AF90EF2450601224E0601624F0C2
:10198E00601A2470701C7814E2F280167814E22427
:10199E0004F2800E7814E22408F280067814E22411
:1019AE000CF2E59064F0600680F8E47814F2781496
:0219BE00E2FF46
:0119C0002204
:101E930073696E00636F730074616E0073717274A3
:081EA300006C6E006578700010
:1019C100784EE2FC08E2FD08E2FE08E2FF2278150B
:1019D100E2FB08E2FA08E2F90205F67815E2FB08F3
:1019E10008E2F92401F218E2FA3400F20205F6786D
:1019F1003DE2FB08E2F908E2FA08E2CBF82278526C
:101A01007C007DFE7BFF120899EF2278527C007DDD
:101A1100FE7BFF120899EF22E22401F218E2340062
:0F1A2100F22278527C007DFE7BFF120899EF22A3
:101C7000121C2380371219CFFF642B6005EF642DEF
:021C80007031C1
:101C82001219DC783CF2121C23783D1206B7783C1C
:101C9200E27838B42B0B1219C31219F012000D801E
:0F1CA200091219C31219F012000978381206B787
:071CB10080C278381219C34C
:011CB8002209
:101C23001212E0803B1219CFFF64786005EF642F36
:021C330070350A
:101C35001219DC7845F21212E078461206B778459B
:101C4500E27841B4780D1219C378461219F21200E0
:101C5500FE800B1219C378461219F2120207784159
:031C65001206B7AD
:071C680080BE78411219C390
:011C6F002252
:1012E000784A1206C3000000001219CFB428131266
:1012F0001A19121C70784A1206B77817121A1902B6
:1013000013F41219CFFF121F1A40061219CFB42E70
:101310000612162A0214171219CFFF642B6005EF6C
:04132000642D7026A2
:101324001219DC7852F21212E0784A1206B7785297
:10133400E2B42B07784A1219C38008784A1219C3F9
:031344001202A4EE
:0F1347000214171219CFFF121E4640030213F4AF
:10135600E4785CF208F21219CFFF121E46501412FE
:1013660019DCFF785C08E2FD121A1A74522DF8EFA8
:10137600F280E3785C08E22452F8E4F21212E07894
:101386004E1206B77A1E79931219FF70091219C107
:10139600120F410214177A1E79971219FF7009125B
:1013A60019C1120F2B0214177A1E799B121A0C7090
:1013B600091219C1120F6D0214177A1E799F121A9B
:1013C6000C70091219C11216EB0214177A1E79A4B1
:1013D600121A2370081219C112145880347A1E7911
:0C13E600A7121A2370081219C11217C7B1
:0813F20080231219CFB45E2420
:1013FA00121A191212E078521206B778521219C349
:10140A0078621206B7784A1219C3121043784A1240
:02141A0006B713
:07141C0080D6784A1219C3C3
:0114230022A6
:10162A00785E1206C3000000001219CFFF121F1ABB
:10163A00503AE4FFFE7D207C41785E1219F21200D6
:10164A00FEC004C005C006C0071219DCFC1202BFA6
:10165A00D003D002D001D00012000DE4FBFA794089
:10166A0078C212000D785E1206B780BD1219CF64D7
:10167A002E7064121A1978621206C33F8000001293
:10168A0019CFFF121F1A504F78621219C3E4FBFADE
:10169A007920784112020778621206B7785E121929
:1016AA00F2C000C001C002C0031219DCFF3395E08A
:1016BA00FEEF24D0FDEE34FFFC1202BA7862121952
:1016CA00F21200FED003D002D001D00012000D7831
:0C16DA005E1206B7021689785E1219C372
:0116E60022E1
:0D1F37007815EBF208EAF208E9F2021C70DE
:031E8F00811CFFB4
:101EAB007F017E00121F50781FE224FFF218E234EC
:051EBB00FFF208E22225
:0B1F5000EF1FAC0670011E4C70F62263
:1018B500EF1206F5192007190508192609190E0C46
:1018C500191D0D192315191716191118191A191992
:1018D500081C192C4018FC42192F431929441932A8
:1018E5004519354619384719024A18FF52190B5A36
:1018F50019145E0000193B7F00227F01227F02221E
:101905007F03227F04227F05227F06227F07227F15
:1019150008227F09227F0A227F0B227F0C227F0D5E
:10192500227F0E227F0F227F10227F11227F12221B
:091935007F13227F14227FFF22A0
:091F6500D288D2A8D2AFD2B22278
:10154700E4781DF208F208F2FD08F230B203021641
:1015570029781E7403F20874E8F220B213781FE2A8
:10156700700218E2600A121EAB700218E270EB22DA
:1015770020B203021610781E7401F20874F4F230D8
:10158700B213781FE2700218E2600A121EAB7002F3
:1015970018E270EB22E4FDE47820F2781E7402F280
:1015A700087458F220B213781FE2700218E2600A3A
:1015B700121EAB700218E270EB22781EE4F2087478
:1015C70014F230B2137F0A7E00121F50781DE20416
:1015D700F2E2D3941440EB2274182DF8C000E2C352
:1015E70013D000F2781DE2C39408400874182DF850
:1015F700E24480F2E4781DF27820E204F2E2C39438
:101607000840980DED6404708E781BE2F4FF18E231
:10161700FE6F600A7D047818E4F208DDFC22781C6E
:02162700EEF2E1
:01162900229E
:10000600020328E86480F8E933E83360110460F0FD
:10001600ED33EC337009E8FCE9FDEAFEEBFF220460
:1000260060DED3EB9FEA9EE99DE8C2E78CF0C2F75B
:1000360095F0400CE8CCF8E9CDF9EACEFAEBCFFB27
:100046001202F385D0F05804700320D5B3E804708B
:10005600075002B2D502033292D5EC0460F7E4CC25
:10006600C0E0C398F8603B94186008400DD0E0FBF0
:1000760002030AE4FBFAC9FC8028E830E406E4C976
:10008600FBE4CAFCE830E305E4C9CACBFCE8540744
:100096006010F8C3E913F9EA13FAEB13FBEC13FC4F
:1000A600D8F130F52FC3E49CFCEF9BFFEE9AFEEDF2
:1000B60099FDD0E0FBEF4E4D4C701222DB0302039C
:1000C6002FEC2CFCEF33FFEE33FEED33FDED30E786
:1000D600EB02030AEF2BFFEE3AFEED39FDD0E0FB13
:1000E60050130BBB0003020332ED13FDEE13FEEFBC
:0800F60013FFEC13FC02030AE6
:1000FE00EC4D6011E8497017ED33EC3304600DE4FC
:10010E00FCFFFEFD22E933E8330470F802032812E7
:10011E0002F358046009E4CC2481500628500902E9
:10012E00033228400302032FC0E0EB4A7044B9802B
:10013E0006D0E0FB02031EEF4E701CBD8008EBFFE5
:10014E00EAFEE9FD80EBE98DF0A4FEE5F00201E7A1
:10015E00E9CDF9EAFEEBFFEF89F0A4FCE5F0CE89DC
:10016E00F0A42EFFE435F0CD89F0A42DFEE435F099
:10017E008067EF4E7005BD80D780C3EF8BF0A4ACC7
:10018E00F0EE8BF0A42CFCE435F0F8EF8AF0A42C02
:10019E00E5F038FCE433CB8DF0A42CFCE5F03BF815
:1001AE00EE8AF0A42CFCE5F038F8E433CF89F0A405
:1001BE002CFCE5F038CF3400CE89F0A42FFFE5F00B
:1001CE003EFEE433C98DF0A42EFEE5F039CD8AF063
:1001DE00A42FFFE5F03EFEE43DFD33D0E0FB5007DB
:1001EE000BBB000F020332EC2CFCEF33FFEE33FEA1
:0601FE00ED33FD02030ACF
:10020400020332EC5D046005E8590470030203281C
:100214001202F3580460F6EC4860F2EC7004FDFE40
:10022400FF22C860DB2481C85009C39860025006CD
:1002340002032F9850CAF582E9294B4A7005AB8214
:1002440002031E75F0007C1A7880C3EF9BEE9AEDD2
:1002540099400DC3EF9BFFEE9AFEED99FDE842F045
:10026400DC23ACF0D0E0FFD0E0FED0E0FDAB822098
:10027400E7101BEB60BAEC2CFCEF33FFEE33FEED22
:1002840033FD02030AE803F830E705C0F075F00017
:10029400EF2FFFEE33FEED33FD40B830E7C280AA06
:1002A400ED33EC33600A047003BD8004ECB2E7FC68
:0102B4002227
:1002B50075F020800E75F010800575F0087D007EC4
:1002C500007F003392D530D503120670EC33401011
:1002D500EF33FFEE33FEED33FDEC33FCD5F0ED22CD
:0E02E500E5F0247EA2D513CC92E7CDCEFF2209
:1008B600E508243BF8E20508227838300702783B41
:1008C600E475F0011206DC0205F62000EB7F2ED25D
:1008D600008018EF540F2490D43440D4FF30040B1A
:1008E600EF24BFB41A0050032461FFE50960021526
:1008F60009050CE50C7002050B30070D7838E47518
:10090600F0011206DCEF02063C021DA07403D207BA
:100916008003E4C207F50878381206ECE4F509F519
:100926000BF50CE50960077F201208F180F5750AC2
:10093600FFC201C200C202C203C205C206C2081239
:1009460008BFFF700D3007057F00120902AF0CAE1D
:100956000B22B4255FC2D5C2041208BFFF24D0B44F
:100966000A00501A75F00A780930D50508B6FF0155
:1009760006C6A426F620D5047002D20380D924CF59
:10098600B41A00EF5004C2E5D204020BEED2018085
:10099600C6D20080C0D20280BCD2D580BAD2058031
:1009A600B47F201208F12002077401B5090040F156
:1009B6001208B6FF1208F1020929D208D20680955C
:1009C6001208B6FB1208B6FA1208B6F94A4B7006B8
:1009D60079E57A0C7BFF20022EE509602A7E008EDF
:1009E6008275830012060F60060EEE650A70F0C26D
:1009F600D5EBC0E0EAC0E0E9C0E0EE120C4ED0E074
:100A0600F9D0E0FAD0E0FB1205F6FF60AAEBC0E0F1
:100A1600EAC0E0E9C0E01208F1D0E02401F9D0E034
:100A26003400FAD0E0FBE50A0460DCD50AD98087F9
:100A3600D20280A2120C3160F7E50A70010412049A
:100A460007A90A600DE50A600914F50A120CD8EF29
:100A560060F3EA30E702F404C3995077EAF4250A12
:100A66000430E701E404F50A800D120C3160C1EA96
:100A7600050A250A120407EA784EF230E701E42552
:100A86000A04D50A0420050114120C4EE4C0E01233
:100A96000CD8784EE2601320E70714F21208D980CA
:100AA6002204F2D0E014C0E07F001208D9E50A6003
:100AB600071208D0150A800B3005031208D0D0E0C3
:100AC600020929D0E00480C5120C3160A0E50A04B1
:100AD600120407784EEAF2E50A20050260010424B2
:0C0AE60004120C4E74FF04C0E0120CD887
:100AF2001208D9E50A20050260031208D0D0E0B539
:100B02000AE87F451208E3784EE27F2B30E7047F44
:100B12002DF404C0E01208F1D0E075F00A84C0F0B0
:100B22001208DAD0E01208DA020929791080027973
:100B320008C206C2088008D2D5790A8004790AC29E
:100B4200D5E50A047002F50AE4FAFDFEFF1208B6C2
:100B5200FC7B082001131208B6FD7B1030000A123C
:100B620008B6FE1208B6FF7B20EC3382D592D55030
:100B720013C3E43000069FFFE49EFEE42001039DC0
:100B8200FDE49CFCE4CBF8C201EC700CCFCECDCCE2
:100B9200E824F8F870F38017C3EF33FFEE33FEED6D
:100BA20033FDEC33FCEB33FB994002FB0FD8E9EB4E
:100BB200300105F8D0E0C448B201C0E00AEC4D4E65
:100BC2004F78207B0070C2EAB50A0040BCC0E01238
:100BD2000C50D0F0D0E0200104C4C0E0C4B201C087
:100BE200F01208DAD0F0D5F0EB0209291206F50965
:100BF200C6530B2D5809974C0993420B314F0B39B1
:100C0200440B394909AC430B3F550A70460ACE459D
:100C12000A3A470D0550099B2D099F2E09C22B093F
:100C2200A32309C0200CEE2A095B48000009BAE59B
:100C32000AB4FF03750A061208B6FC1208B6FD12C2
:100C420008B6FE1208B6FF7847020436790AA2D522
:100C5200200314300509B910020404B9080104A2E2
:100C6200D52006025001042002689202B509005004
:100C720034C0E07F203003197F30A2027206720571
:100C8200500F120CA7C202C206C205C2087F3080F2
:100C92000F300503E9C0E01208F1300503D0E0F996
:100CA200D0E0B509CC3005177F30B9100C1208F12D
:100CB2007F583004077F788003B908031208F130A7
:100CC20002057F2D0208F17F202008F87F2B2006E5
:100CD200F322920280CF7F00B4070050052447F828
:100CE200E2FF22286E756C6C2900D2011208B63020
:100CF20001F8C201780930D50108F602095B2D50CE
:100D02004349581208B62403B405004001E4900D8B
:100D120000931208E2743A1208E2D203750904023F
:020D22000B2D97
:10178F0033DA929E35B16011377FE5FE39218489B6
:10179F003AAEC3FF3C1D955B3D6358473E75FDF068
:1017AF003F3172183F800000C2D502033202032876
:1017BF00BD80FA50F302032FED33EC330460F17B5D
:1017CF003B7AAA79B8783F1200FEED33EC3392D50D
:1017DF00247B5011A2D570DB500BED4480240450B4
:1017EF0004A2D580CEEFFBEEFAEDF9ECF81203D0A0
:1017FF00EFF582F404FC1202BF12000DC0829017A5
:10180F008F7409120548ED33CC33D0F092D525F003
:0A181F00A2D57001C313CC13FD2203
:101424003E9248DA3ECCCCCD3F2AAAAB4000000025
:101434003F8000003F9837F03FB504F33FD744FCAA
:101444003E3172173EB172173F0515913EDE5BD9EE
:10145400D2008002C200EDD2E7F8CD33EC33047041
:101464000BBD800592D502033202032840FBD3143E
:1014740060F2F5F07C3FEE7A00C39496C8948B40FA
:10148400230AC89469C8941A401A0AC89468C8946C
:101494001F40110AC8945AC89425400805F07A00E0
:1014A400CDC2E7CDC0F078681206B7EA2323C0E0C6
:1014B4002434F582E43414F5831206A712000DECEB
:1014C400C0E0EDC0E0EEC0E0EFC0E012068A78684C
:1014D40012069A120009D0E0FBD0E0FAD0E0F9D06D
:1014E400E0B2E7F812020778681206B79014247481
:1014F40003120539786812069A1200FED0E0600FD4
:101504002440F582E43414F5831206A712000D7802
:10151400681206B7D0E0C3947FFDE49400FC120285
:10152400BA7B187A727931783F1200FE7868120615
:101534009A12000D30000B7BD97A5B79DE783E126B
:0315440000FE2284
:1016E70002032822EDA2E7D2E7F9EC3340F260F3D8
:1016F700B4FF08ED547F70E8020332F82481C2E09A
:10170700C0E0F40428FAC313FCED92E7FD785E12FB
:1017170006B7EEA2E7E9BA7F02C31334009400FAD2
:1017270075F091A4E5F013F494FE8AF0A433E5F084
:1017370033248CD313FDE492E7FE7F007C3F75834F
:1017470002ECC0E0F8EDC0E0F9EEC0E0FAEFC0E06F
:10175700FB88F0785E12067EA8F0120207D0E0FB45
:10176700D0E0FAD0E0F9D0E0F812000DED6480FD8A
:1017770030E7011CD583CAED33CC33F8D0E0A2E7BC
:081787001328C313CC13FD224B
:100EE3003A70FA83BCAAE9E43E81E0F8BF9DE9E6E3
:100EF3003F80000039283C1ABB9969663DA335E35E
:100F0300BF255DE73FC90FDB418DDBCCC44936EE1E
:100F130045C9913FC5B0F83D3F800000C317F53484
:100F2300452FFA73C60AFDDD120FC404A2E1920035
:100F33001420E015900EE374041205398020120F7B
:100F4300C430E102B20020E0EB785E1206B7900EE7
:100F5300F77404120539785E12069A1200FEED4CFE
:100F63006007300004EC6480FC22120FC4C0E078F8
:100F73005E1206B7900F1B7403120539785E1206D2
:100F83009A1200FE785EE2CCF208E2CDF208E2CEDD
:100F9300F208E2CFF2900F0B7403120539D0827876
:100FA3005E12069AE58230E007120207B20080AEB5
:100FB300EFCBFFEECAFEEDC9FDECC8FC12020780C1
:100FC3009DED33EC547FCC33920024605007D0E086
:100FD300D0E00203287B837AF97922783E1200FE5F
:100FE300EDF933ECF83324815011EFFBEEFA1203E1
:100FF300D01202B5ECB2E7FC12000DED33EC336016
:101003002F2403F8C313FCED92E7FDE82481E45099
:101013001FECF8EDF9EEFAEFFB1203D0EF04C2E098
:10102300FCF5821202BFECB2E7FC12000DE582036D
:10103300FAED33EC3360071413FCED92E7FDEA227B
:10104300785E1206B7E4FFFE7D807C3F785EE2FBAC
:1010530008E2F908E2FA08E2CBF8120357700578C0
:101063005E02118F785EE2FC08E2FD08E2FE08E210
:10107300FF12033DFB08E2FC08E2FD08E2FE08E282
:10108300FF12033DFFB40108E4FFFE7D807C3F2295
:10109300EF64046029EB64046024EBB4012EE4FFE5
:1010A300FEFDFC7862E2FB08E2F908E2FA08E2CB13
:1010B300F812035760084006E4FFFEFDFC22786245
:1010C3001206C3FFFFFFFF786202118FE47866F216
:1010D30008F2FFFEFDFC785EE2FB08E2F908E2FAA3
:1010E30008E2CBF8120357505D7862E2FC08E2FD98
:1010F30008E2FE08E2FF1203D07866EEF208EFF290
:10110300FDCCEECCEC1202BAECC0E0C9EDC9CAEEDC
:10111300CACBEFCB7862E2FC08E2FD08E2FE08E20C
:10112300FFD0E0F8120009E4FBFAF9F81203577054
:101133008D785EE2FC08E2FD08E2FE08E2FF12029F
:10114300A4785E1206B7785EE2FC08E2FD08E2FED0
:1011530008E2FF1214587862E2FB08E2F908E2FAA7
:1011630008E2CBF81200FE1217C778621206B778AE
:1011730067E230E0157862E2FC08E2FD08E2FE086F
:10118300E2FF1202A478621206B77862E2FC08E278
:08119300FD08E2FE08E2FF2264
:1002F300E9D2E7C933E833F892D5EDD2E7CD33EC51
:0703030033FC5002B2D522C9
:10030A00EC30E7100FBF000C0EBE00080DBD000454
:10031A000BEB6014A2D5EB13FCED92E7FD2274FF00
:10032A00FCFDFEFF22E480F8A2D574FF13FC7D8059
:03033A00E480EF6D
:10033D00ED33EC33601004700FED547F70057402D3
:0A034D0092E0227404220422E4224C
:1003570074F8CC6480CCC86480C8F58204604FC34D
:10036700EB9FF5F0EA9E42F0E99D42F0E89C45F0EC
:10037700603C501DE5825FFFE582D313CB5BCBF476
:100387002B5582FB50280ABA002409B9002008809F
:100397001DE5825BFBE582D313CF5FCFF4C3132F39
:1003A7005582FF50090EBE00050DBD00010CC3EBC1
:1003B7009FF5F0EA9E42F0E99D42F0E89C45F06027
:0903C70007CC4820E701B3EC2249
:1003D000EDD2E7CD33EC3392D524814006E4FFFE25
:1003E000FDFC22FCE4CFCECDCC24E0501174FF8084
:1003F000EDC3CC13CCCD13CDCE13CECF13CF047021
:07040000F030D5DE020670AA
:10040700F920E72824F950037907E4F42402FB18BC
:10041700DBFDE224FB5014E9600DE4F218E204F27C
:0F042700B40A08E4F2D9F57401F20A22C2D52210
:10043600ED33EC3392D5FA602AB4FF33EDC2E77B95
:10044600FF60067A04795BE4227A04796420D50495
:100456007A04795F224E614E002B494E46002D49A3
:100466004E4600E47A08F208DAFC7B00740722E8BC
:10047600C0E0ECC0E0EDC0E0EEC0E0EFC0E0EA7541
:10048600F010A4CAABF075F04DA42BFBE435F0FCDC
:10049600EA2410FAEB34C5FBEC34D9FCEDC2E7FFD5
:1004A60075F056A4F42411C5F0F434C58FF0A42ACF
:1004B600E5F03BE43CF220E7141205B6D0E0FFD0AD
:1004C600E0FED0E0FDD0E0FC1202078014F4041236
:1004D60005B6D0E0FFD0E0FED0E0FDD0E0FC120093
:1004E600FED0E0F8E2FAEDD2E7CD33EC332482FB1E
:1004F600E4C3CF33CFCE33CECD33CD33DBF37B075F
:1005060075F00A846004F2081B0AE5F0F2088FF021
:10051600740AA4FFACF08EF0740AA42CFEACF05062
:10052600010C8DF0740AA42CFDE435F0F208DBDE34
:0305360074072225
:10053900C0E0EFFBEEFAEDF9ECF81200FED0E0F5C1
:10054900F0EFFBEEFAEDF9ECF812068AA3A3A3A3E8
:10055900E8C0E0E9C0E0EAC0E0EBC0E0C0F01200AA
:10056900FE1206A7A3A3A3A312000DD0F0D0E0FBAF
:0D057900D0E0FAD0E0F9D0E0F8D5F0D422BF
:100586003F8000004120000042C80000447A00007D
:10059600461C400047C35000497424004B189680FF
:1005A6004CBEBC205A0E1BCA6753C21C749DC5AEF6
:1005B600FB60065407601C23231205E4EB543860E5
:1005C600091205D01205DF1200FEECF8EDF9EEFA7D
:1005D600EFCB22EB1205DF80F1543803241C900583
:1005E60086FE93FC0EEE93FD0EEE930ECE93FF2247
:03000000021829BA
:0C182900787FE4F6D8FD7581210218706C
:1005F600BB010689828A83E0225002E722BBFE0203
:09060600E32289828A83E4932235
:10060F00BB010CE58229F582E5833AF583E02250A0
:10061F0006E92582F8E622BBFE06E92582F8E222EA
:0D062F00E58229F582E5833AF583E4932204
:10063C00BB010689828A83F0225002F722BBFE019D
:02064C00F32297
:10064E00F8BB010DE58229F582E5833AF583E8F0E2
:10065E00225006E92582C8F622BBFE05E92582C88E
:02066E00F22276
:0E067000C3E49FFFE49EFEE49DFDE49CFC229B
:0C067E00E2FC08E2FD08E2FE08E2FF22B8
:10068A00E493FC740193FD740293FE740393FF22B6
:0D069A00E2FB08E2F908E2FA08E2CBF822E0
:1006A700E493F8740193F9740293FA740393FB22A9
:0C06B700ECF208EDF208EEF208EFF2227F
:1006C300D083D082E493F208740193F20874029306
:0906D300F208740393F27404733D
:1006DC00FAE2FB0808E2F925F0F218E2CA3AF22233
:0906EC00EBF208EAF208E9F2223F
:1006F500D083D082F8E4937012740193700DA3A394
:1007050093F8740193F5828883E4737402936860A7
:06071500EFA3A3A380DFA7
:101DA000EFB40A07740D121DAB740A309811A8998C
:101DB000B8130CC2983098FDA899C298B811F630A3
:071DC00099FDC299F599227B
:101E4600EFC394414005EF945B400BEFC3946140B0
:0B1E560008EF947B5003D38001C322EF
:0F1F1A00EFC394304007EF943A50028001C32286
:10071B00E3F5F009E208B5F06D606B80F3E3F5F0FB
:10072B0009E608B5F060605E80F387F009E608B56E
:10073B00F054605280F487F009E208B5F048604647
:10074B0080F488828C8387F009E0A3B5F03860369B
:10075B0080F488828C8387F009E493A3B5F027603B
:10076B002580F388828C83E3F5F009E0A3B5F016BE
:10077B00601480F388828C83E3F5F009E493A3B5CE
:10078B00F004600280F2020846808580E7808E804C
:10079B00D2803C8015806C807E809B80B5808B8066
:1007AB00A1804F8070803A02085289828A83ECFACA
:1007BB00E493F5F0A3C8C582C8CCC583CCE493A35E
:1007CB00C8C582C8CCC583CCB5F070606E80E1899A
:1007DB00828A83E493F5F0A3E208B5F05E605C8057
:1007EB00F289828A83E0F5F0A3E608B5F04D604B01
:1007FB0080F389828A83E0F5F0A3E208B5F03C60D0
:10080B003A80F389828A83E493F5F0A3E608B5F086
:10081B002A602880F2805389828A83ECFAE493F56C
:10082B00F0A3C8C582C8CCC583CCE0A3C8C582C819
:10083B00CCC583CCB5F004600280E27FFFB5F0023B
:10084B000F2240027F012289828A83ECFAE0F5F0C5
:10085B00A3C8C582C8CCC583CCE0A3C8C582C8CC0D
:10086B00C583CCB5F0D560D380E389828A83ECFA5B
:10087B00E0F5F0A3C8C582C8CCC583CCE493A3C86C
:10088B00C582C8CCC583CCB5F0B160AF80E288F02F
:10089B00ED2402B4040050A3F582EB2402B404004F
:0B08AB0050992323458223900794738B
:101A30007848EBF208EAF208E9F2E47850F208F2AA
:101A4000784E08E2FF24FFF218E2FE34FFF2EF4E78
:101A5000603E784BE2FB08E2FA08E2F91205F6FF75
:101A60007848E2FB08E2FA08E2F9785008E2FD243F
:101A700001F218E2FC3400F28D828C83EF12064EE4
:101A8000EF60BD784DE22401F218E23400F280B03C
:0B1A90007848E2FB08E2FA08E2F922C5
:101EC000E4FFFE1205F6600C0FEF70010E09E970D9
:051ED000F20A80EF2280
:10183500021D71E493A3F8E493A34003F68001F23B
:1018450008DFF48029E493A3F85407240CC8C333B4
:10185500C4540F4420C8834004F456800146F6DF83
:10186500E4800B0102040810204080901E7AE47E7B
:10187500019360BCA3FF543F30E509541FFEE49378
:10188500A360010ECF54C025E060A840B8E493A33F
:10189500FAE493A3F8E493A3C8C582C8CAC583CA6A
:1018A500F0A3C8C582C8CAC583CADFE9DEE780BE22
:011E9200004F
:00000001FF
