:101C9E00252E313067006D6178203235352063682E
:101CAE00617221003C3E43533738392B3435362D83
:101CBE0031323378302E2F3D28294253373839347C
:101CCE003536313233302E2F2B2D7828294243537F
:011CDE004FB6
:101E58008104008105018100008103008101018165
:021E6800020076
:101D1A007841E4F208EFF20874FEF2087400F2085F
:101D2A007406F27838E2FB08E2FA08E2F922EBF2EA
:101D3A0008EAF208E9F2227B017A00796C227BFE3A
:051D4A007A0079272258
:101E3F007804E26006EFC394105007EF901CB6933E
:091E4F00FF22EF901CA293FF2278
:051C5600783C121D386E
:101C5B00C37842E29DFF18E29CFE7846F208EFF251
:101C6B00783CE2FB08E2FA08E22DF9EA3CFA784B01
:101C7B00121D3808EEF208EFF27843121D2F121ADC
:101C8B001F7843121D2F08E2FE08E2F5828E83E4D3
:031C9B0002064EF0
:041DC800783CEFF282
:101DCC00121F51E4783DF2783CE2FF08E2C39F50C9
:0D1DDC000C7F01121F07783DE204F280EA3F
:011DE90022D7
:051AF2007838121D38D8
:101AF700121E9E783BEFF2C3940E4019E2FF24F2C8
:101B07007802F2FD7C00121D1A121C56121B4B782C
:101B170001740EF222783BE2FF121D1AE4FDFC125B
:101B27001C56121F4C783BE27008780104F2FF0242
:101B37001DC8121B4B7BFE7A007906121E9EEF14FE
:031B47007801F230
:0F1B4A00227BFE7A007906E4FD7F01121A8A22BF
:0C1B5900783BECF208EDF27838121D38F1
:101B6500121E9E783DEEF208EFF2783BE2FE08E2A7
:101B7500FF783EE224FFFD18E234FFFCC3EF9DEC45
:101B85006480F8EE648098501B7838121D2F8F8280
:101B95008E83A312060F8F828E8312064E0FBF000F
:101BA500010E80CD7838121D2F783EE224FFFF18F4
:0B1BB500E234FF8F82F583E402064E4D
:101ED90074CA2FF582741C3EF583E493FF020D2426
:101D4F00121F39E4FB7D017F01121E0812118AEF69
:101D5F00F46006121E3F120D24781CE2F460ED7839
:0F1D6F0021E2FF7E00121ED9781C74FFF280DD86
:100D24007822EFF2645370237804E270047F018028
:100D3400027F007804EFF260047B7380027B20E47E
:100D4400FDFF121DEA7801E2020E297822E26443D3
:100D54007020121F4C7804E260047B7380027B20B5
:100D6400E4FDFF121DEA78017401F2E490006CF0D6
:100D740018F27822E2B43C157801E26401700302AF
:100D84000ED1E4FF121F077801E214F2227822E266
:100D9400B43E157801E2640F7003020ED17F011294
:100DA4001F077801E204F2227822E26442702312DF
:100DB4001D41121E9E7803EFF27003020ED1121D24
:100DC400417800E2FD7C00121B597800E214F20223
:090DD4000ECB7822E2643D705060
:100DDD00121D41121F1578231206B7783B74FFF2CE
:100DED0008741CF208749EF27823E2FC08E2FD08F8
:100DFD00E2FE08E2FF783E1206B7121D48120912F4
:100E0D00121D48121E9E7837EFF2C374109FFF1209
:100E1D001D487D01121A8A7801E22402FF021DC8C5
:100E2D007822E2644F70247805E26006E4FBFDFF52
:100E3D008006E4FB7D017F01121E087805E2700437
:100E4D007F0180027F007805EFF2227822E2FFC356
:100E5D0094304006EFD3943940267822E2FF642B7C
:100E6D00601EEF642D6019EF64786014EF642F60DD
:100E7D000FEF6428600AEF64296005EF642E70445B
:100E8D00121D41121E9EC3EF94FFEE9400400D7B88
:100E9D00FF7A1C79A47D01E4FF021A8A7822E2FF11
:100EAD007800E2FE04F2746C2EF582E43400F583D2
:100EBD00EFF0E2246CF582E43400F583E4F0121DCA
:050ECD0041121AF2229F
:03000300021CDFFD
:101CDF00C0E0C0F0C083C082C0D075D000C000C0CB
:101CEF0001C002C003C004C005C006C007121536EC
:101CFF00D007D006D005D004D003D002D001D00039
:0B1D0F00D0D0D082D083D0F0D0E032E2
:0C1F2200AD077F647E00121DBDC2A72227
:101DA5007F0A7E00121DBDC2A57F0A7E00121DBDE1
:081DB500AF058F807F0A7E005C
:0B1DBD00EF1FAC0670011E4C70F622F8
:101EB300121F22121DB9C2A6121DA5D2A77F32126C
:031EC3001F2622B5
:101EC600121F22121DB9D2A6121DA5D2A77F321249
:031ED6001F2622A2
:0A1F39007F38121EB37F06021EB3AC
:101E08007E08EF6004EE4404FEED6004EE4402FE3A
:0C1E1800EB6004EE4401FEAF06021EB3B6
:0E1F0700EF60047B1480027B10AF03021EB358
:051F4C007F01021EB33D
:051F51007F02021EB337
:101DEA007E80EF540FFFED5401FDEE4FFEED6004CF
:0E1DFA00EE4440FEAF06121EB3AF03021EC63B
:0E1A8A00783DEBF208EAF208E9F2783CEFF260
:101A9800540FF2ED54017841F27841E2C3940250B8
:101AA80048783CE27840F27840E2FFC39410503224
:101AB800783DE2FB08E2FA08E2F91205F6602378BD
:101AC80041E2FD783DE2FB0808E2F92401F218E260
:101AD800FA3400F21205F6FB121DEA7840E204F22D
:091AE80080C57841E204F280B0EF
:011AF10022D2
:031E6A00811400E0
:041EE9007FE87E030D
:0B1EED00EF1FAC0670011E4C70F622C7
:10118A00782274FFF27590F7E59064F7602F121ECB
:10119A00E9AF90EF2449601224E0601524F060184A
:1011AA0024707019E47822F2801378227404F28091
:1011BA000C78227408F280057822740CF2E590B457
:1011CA00F7FB7590FBE59064FB6030121EE9AF9067
:1011DA00EF2445601324E0601624F060192470702F
:1011EA001A78227401F2801378227405F2800C783E
:1011FA00227409F280057822740DF2E590B4FBFBA3
:10120A007590FDE59064FD6030121EE9AF90EF2401
:10121A0043601324E0601624F060192470701A7871
:10122A00227402F2801378227406F2800C782274F7
:10123A000AF280057822740EF2E590B4FDFB7590EF
:10124A00FEE59064FE6030121EE9AF90EF24426022
:10125A001324E0601624F060192470701A7822743E
:10126A0003F2801378227407F2800C7822740BF24E
:10127A0080057822740FF2E590B4FEFB20B10E12BD
:10128A001EE930B1FD121EE978227410F220B00E68
:10129A00121EE930B0FD121EE978227411F220B252
:1012AA000E121EE930B2FD121EE978227412F220E3
:1012BA00B30E121EE930B3FD121EE978227413F23E
:0412CA007822E2FFA5
:0112CE0022FD
:10192D0075900FE590640F6071121EE9E590640FDC
:10193D00606C75900FAF90EF24F5601124FE60146C
:10194D0014601824077019E47814F2801378147455
:10195D0001F2800C78147402F2800578147403F28D
:10196D007590F0AF90EF2450601224E0601624F0D3
:10197D00601A2470701C7814E2F280167814E22438
:10198D0004F2800E7814E22408F280067814E22422
:10199D000CF2E59064F0600680F8E47814F27814A7
:0219AD00E2FF57
:0119AF002215
:101E710073696E00636F730074616E0073717274C5
:081E8100006C6E006578700032
:1019B000784EE2FC08E2FD08E2FE08E2FF2278151C
:1019C000E2FB08E2FA08E2F90205F67815E2FB0804
:1019D00008E2F92401F218E2FA3400F20205F6787E
:1019E0003DE2FB08E2F908E2FA08E2CBF82278527D
:1019F0007C007DFE7BFF120899EF2278527C007DEF
:101A0000FE7BFF120899EF22E22401F218E2340073
:0F1A1000F22278527C007DFE7BFF120899EF22B4
:101C0D00121BC080371219BEFF642B6005EF642DC7
:021C1D00703124
:101C1F001219CB783CF2121BC0783D1206B7783CF4
:101C2F00E27838B42B0B1219B21219DF12000D80A3
:0F1C3F00091219B21219DF12000978381206B70C
:071C4E0080C278381219B2C0
:011C5500226C
:101BC0001212CF803B1219BEFF64786005EF642FBC
:021BD00070356E
:101BD2001219CB7845F21212CF78461206B7784521
:101BE200E27841B4780D1219B278461219E1120066
:101BF200FE800B1219B278461219E11202077841DF
:031C02001206B710
:071C050080BE78411219B204
:011C0C0022B5
:1012CF00784A1206C3000000001219BEB428131288
:1012DF001A08121C0D784A1206B77817121A08024C
:1012EF0013E31219BEFF121EF840061219BEB42ED8
:1012FF00061216190214061219BEFF642B6005EFB1
:04130F00642D7026B3
:101313001219CB7852F21212CF784A1206B77852CA
:10132300E2B42B07784A1219B28008784A1219B22C
:031333001202A4FF
:0F1336000214061219BEFF121E2440030213E315
:10134500E4785CF208F21219BEFF121E2450141242
:1013550019CBFF785C08E2FD121A0974522DF8EFDB
:10136500F280E3785C08E22452F8E4F21212CF78B6
:101375004E1206B77A1E79711219EE70091219B05C
:10138500120F300214067A1E79751219EE700912C1
:1013950019B0120F1A0214067A1E79791219FB7008
:1013A500091219B0120F5C0214067A1E797D121902
:1013B500FB70091219B01216DA0214067A1E798228
:1013C500121A1270081219B012144780347A1E7955
:0C13D50085121A1270081219B01217B617
:0813E10080231219BEB45E2442
:1013E900121A081212CF78521206B778521219B28D
:1013F90078621206B7784A1219B2121032784A1274
:0214090006B724
:07140B0080D6784A1219B2E5
:0114120022B7
:10161900785E1206C3000000001219BEFF121EF800
:10162900503AE4FFFE7D207C41785E1219E11200F8
:10163900FEC004C005C006C0071219CBFC1202BFC8
:10164900D003D002D001D00012000DE4FBFA79409A
:1016590078C212000D785E1206B780BD1219BE64F9
:101669002E7064121A0878621206C33F80000012B5
:1016790019BEFF121EF8504F78621219B2E4FBFA34
:101689007920784112020778621206B7785E12193A
:10169900E1C000C001C002C0031219CBFF3395E0BD
:1016A900FEEF24D0FDEE34FFFC1202BA7862121963
:1016B900E11200FED003D002D001D00012000D7853
:0C16C9005E1206B7021678785E1219B2A5
:0116D50022F2
:0D1F15007815EBF208EAF208E9F2021C0D63
:031E6D00811CFFD6
:101E89007F017E00121F2E781FE224FFF218E23430
:051E9900FFF208E22247
:0B1F2E00EF1FAC0670011E4C70F62285
:1018A400EF1206F5190F0718F40819150918FD0C9D
:1018B400190C0D19121519061619001819091918F9
:1018C400F71C191B4018EB42191E4319184419211F
:1018D4004519244619274718F14A18EE5218FA5A9E
:1018E40019035E0000192A7F00227F01227F022251
:1018F4007F03227F04227F05227F06227F07227F27
:1019040008227F09227F0A227F0B227F0C227F0D6F
:10191400227F0E227F0F227F10227F11227F12222C
:091924007F13227F14227FFF22B1
:091F4300D288D2A8D2AFD2B2229A
:10153600E4781DF208F208F2FD08F230B203021652
:1015460018781E7403F20874E8F220B213781FE2CA
:10155600700218E2600A121E89700218E270EB220D
:1015660020B2030215FF781E7401F20874F4F230FB
:10157600B213781FE2700218E2600A121E89700226
:1015860018E270EB22E4FDE47820F2781E7402F291
:10159600087458F220B213781FE2700218E2600A4B
:1015A600121E89700218E270EB22781EE4F20874AB
:1015B60014F230B2137F0A7E00121F2E781DE20449
:1015C600F2E2D3941440EB2274182DF8C000E2C363
:1015D60013D000F2781DE2C39408400874182DF861
:1015E600E24480F2E4781DF27820E204F2E2C39449
:1015F6000840980DED6404708E781BE2F4FF18E243
:10160600FE6F600A7D047818E4F208DDFC22781C7F
:02161600EEF2F2
:0116180022AF
:10000600020328E86480F8E933E83360110460F0FD
:10001600ED33EC337009E8FCE9FDEAFEEBFF220460
:1000260060DED3EB9FEA9EE99DE8C2E78CF0C2F75B
:1000360095F0400CE8CCF8E9CDF9EACEFAEBCFFB27
:100046001202F385D0F05804700320D5B3E804708B
:10005600075002B2D502033292D5EC0460F7E4CC25
:10006600C0E0C398F8603B94186008400DD0E0FBF0
:1000760002030AE4FBFAC9FC8028E830E406E4C976
:10008600FBE4CAFCE830E305E4C9CACBFCE8540744
:100096006010F8C3E913F9EA13FAEB13FBEC13FC4F
:1000A600D8F130F52FC3E49CFCEF9BFFEE9AFEEDF2
:1000B60099FDD0E0FBEF4E4D4C701222DB0302039C
:1000C6002FEC2CFCEF33FFEE33FEED33FDED30E786
:1000D600EB02030AEF2BFFEE3AFEED39FDD0E0FB13
:1000E60050130BBB0003020332ED13FDEE13FEEFBC
:0800F60013FFEC13FC02030AE6
:1000FE00EC4D6011E8497017ED33EC3304600DE4FC
:10010E00FCFFFEFD22E933E8330470F802032812E7
:10011E0002F358046009E4CC2481500628500902E9
:10012E00033228400302032FC0E0EB4A7044B9802B
:10013E0006D0E0FB02031EEF4E701CBD8008EBFFE5
:10014E00EAFEE9FD80EBE98DF0A4FEE5F00201E7A1
:10015E00E9CDF9EAFEEBFFEF89F0A4FCE5F0CE89DC
:10016E00F0A42EFFE435F0CD89F0A42DFEE435F099
:10017E008067EF4E7005BD80D780C3EF8BF0A4ACC7
:10018E00F0EE8BF0A42CFCE435F0F8EF8AF0A42C02
:10019E00E5F038FCE433CB8DF0A42CFCE5F03BF815
:1001AE00EE8AF0A42CFCE5F038F8E433CF89F0A405
:1001BE002CFCE5F038CF3400CE89F0A42FFFE5F00B
:1001CE003EFEE433C98DF0A42EFEE5F039CD8AF063
:1001DE00A42FFFE5F03EFEE43DFD33D0E0FB5007DB
:1001EE000BBB000F020332EC2CFCEF33FFEE33FEA1
:0601FE00ED33FD02030ACF
:10020400020332EC5D046005E8590470030203281C
:100214001202F3580460F6EC4860F2EC7004FDFE40
:10022400FF22C860DB2481C85009C39860025006CD
:1002340002032F9850CAF582E9294B4A7005AB8214
:1002440002031E75F0007C1A7880C3EF9BEE9AEDD2
:1002540099400DC3EF9BFFEE9AFEED99FDE842F045
:10026400DC23ACF0D0E0FFD0E0FED0E0FDAB822098
:10027400E7101BEB60BAEC2CFCEF33FFEE33FEED22
:1002840033FD02030AE803F830E705C0F075F00017
:10029400EF2FFFEE33FEED33FD40B830E7C280AA06
:1002A400ED33EC33600A047003BD8004ECB2E7FC68
:0102B4002227
:1002B50075F020800E75F010800575F0087D007EC4
:1002C500007F003392D530D503120670EC33401011
:1002D500EF33FFEE33FEED33FDEC33FCD5F0ED22CD
:0E02E500E5F0247EA2D513CC92E7CDCEFF2209
:1008B600E508243BF8E20508227838300702783B41
:1008C600E475F0011206DC0205F62000EB7F2ED25D
:1008D600008018EF540F2490D43440D4FF30040B1A
:1008E600EF24BFB41A0050032461FFE50960021526
:1008F60009050CE50C7002050B30070D7838E47518
:10090600F0011206DCEF02063C021D7E7403D207DC
:100916008003E4C207F50878381206ECE4F509F519
:100926000BF50CE50960077F201208F180F5750AC2
:10093600FFC201C200C202C203C205C206C2081239
:1009460008BFFF700D3007057F00120902AF0CAE1D
:100956000B22B4255FC2D5C2041208BFFF24D0B44F
:100966000A00501A75F00A780930D50508B6FF0155
:1009760006C6A426F620D5047002D20380D924CF59
:10098600B41A00EF5004C2E5D204020BEED2018085
:10099600C6D20080C0D20280BCD2D580BAD2058031
:1009A600B47F201208F12002077401B5090040F156
:1009B6001208B6FF1208F1020929D208D20680955C
:1009C6001208B6FB1208B6FA1208B6F94A4B7006B8
:1009D60079E57A0C7BFF20022EE509602A7E008EDF
:1009E6008275830012060F60060EEE650A70F0C26D
:1009F600D5EBC0E0EAC0E0E9C0E0EE120C4ED0E074
:100A0600F9D0E0FAD0E0FB1205F6FF60AAEBC0E0F1
:100A1600EAC0E0E9C0E01208F1D0E02401F9D0E034
:100A26003400FAD0E0FBE50A0460DCD50AD98087F9
:100A3600D20280A2120C3160F7E50A70010412049A
:100A460007A90A600DE50A600914F50A120CD8EF29
:100A560060F3EA30E702F404C3995077EAF4250A12
:100A66000430E701E404F50A800D120C3160C1EA96
:100A7600050A250A120407EA784EF230E701E42552
:100A86000A04D50A0420050114120C4EE4C0E01233
:100A96000CD8784EE2601320E70714F21208D980CA
:100AA6002204F2D0E014C0E07F001208D9E50A6003
:100AB600071208D0150A800B3005031208D0D0E0C3
:100AC600020929D0E00480C5120C3160A0E50A04B1
:100AD600120407784EEAF2E50A20050260010424B2
:0C0AE60004120C4E74FF04C0E0120CD887
:100AF2001208D9E50A20050260031208D0D0E0B539
:100B02000AE87F451208E3784EE27F2B30E7047F44
:100B12002DF404C0E01208F1D0E075F00A84C0F0B0
:100B22001208DAD0E01208DA020929791080027973
:100B320008C206C2088008D2D5790A8004790AC29E
:100B4200D5E50A047002F50AE4FAFDFEFF1208B6C2
:100B5200FC7B082001131208B6FD7B1030000A123C
:100B620008B6FE1208B6FF7B20EC3382D592D55030
:100B720013C3E43000069FFFE49EFEE42001039DC0
:100B8200FDE49CFCE4CBF8C201EC700CCFCECDCCE2
:100B9200E824F8F870F38017C3EF33FFEE33FEED6D
:100BA20033FDEC33FCEB33FB994002FB0FD8E9EB4E
:100BB200300105F8D0E0C448B201C0E00AEC4D4E65
:100BC2004F78207B0070C2EAB50A0040BCC0E01238
:100BD2000C50D0F0D0E0200104C4C0E0C4B201C087
:100BE200F01208DAD0F0D5F0EB0209291206F50965
:100BF200C6530B2D5809974C0993420B314F0B39B1
:100C0200440B394909AC430B3F550A70460ACE459D
:100C12000A3A470D0550099B2D099F2E09C22B093F
:100C2200A32309C0200CEE2A095B48000009BAE59B
:100C32000AB4FF03750A061208B6FC1208B6FD12C2
:100C420008B6FE1208B6FF7847020436790AA2D522
:100C5200200314300509B910020404B9080104A2E2
:100C6200D52006025001042002689202B509005004
:100C720034C0E07F203003197F30A2027206720571
:100C8200500F120CA7C202C206C205C2087F3080F2
:100C92000F300503E9C0E01208F1300503D0E0F996
:100CA200D0E0B509CC3005177F30B9100C1208F12D
:100CB2007F583004077F788003B908031208F130A7
:100CC20002057F2D0208F17F202008F87F2B2006E5
:100CD200F322920280CF7F00B4070050052447F828
:100CE200E2FF22286E756C6C2900D2011208B63020
:100CF20001F8C201780930D50108F602095B2D50CE
:100D02004349581208B62403B405004001E4900D8B
:100D120000931208E2743A1208E2D203750904023F
:020D22000B2D97
:10177E0033DA929E35B16011377FE5FE39218489C7
:10178E003AAEC3FF3C1D955B3D6358473E75FDF079
:10179E003F3172183F800000C2D502033202032887
:1017AE00BD80FA50F302032FED33EC330460F17B6E
:1017BE003B7AAA79B8783F1200FEED33EC3392D51E
:1017CE00247B5011A2D570DB500BED4480240450C5
:1017DE0004A2D580CEEFFBEEFAEDF9ECF81203D0B1
:1017EE00EFF582F404FC1202BF12000DC0829017B6
:1017FE007E7409120548ED33CC33D0F092D525F026
:0A180E00A2D57001C313CC13FD2214
:101413003E9248DA3ECCCCCD3F2AAAAB4000000036
:101423003F8000003F9837F03FB504F33FD744FCBB
:101433003E3172173EB172173F0515913EDE5BD9FF
:10144300D2008002C200EDD2E7F8CD33EC33047052
:101453000BBD800592D502033202032840FBD3144F
:1014630060F2F5F07C3FEE7A00C39496C8948B400B
:10147300230AC89469C8941A401A0AC89468C8947D
:101483001F40110AC8945AC89425400805F07A00F1
:10149300CDC2E7CDC0F078681206B7EA2323C0E0D7
:1014A3002423F582E43414F5831206A712000DEC0D
:1014B300C0E0EDC0E0EEC0E0EFC0E012068A78685D
:1014C30012069A120009D0E0FBD0E0FAD0E0F9D07E
:1014D300E0B2E7F812020778681206B790141374A3
:1014E30003120539786812069A1200FED0E0600FE5
:1014F300242FF582E43414F5831206A712000D7825
:10150300681206B7D0E0C3947FFDE49400FC120296
:10151300BA7B187A727931783F1200FE7868120626
:101523009A12000D30000B7BD97A5B79DE783E127C
:0315330000FE2295
:1016D60002032822EDA2E7D2E7F9EC3340F260F3E9
:1016E600B4FF08ED547F70E8020332F82481C2E0AB
:1016F600C0E0F40428FAC313FCED92E7FD785E120D
:1017060006B7EEA2E7E9BA7F02C31334009400FAE3
:1017160075F091A4E5F013F494FE8AF0A433E5F095
:1017260033248CD313FDE492E7FE7F007C3F758360
:1017360002ECC0E0F8EDC0E0F9EEC0E0FAEFC0E080
:10174600FB88F0785E12067EA8F0120207D0E0FB56
:10175600D0E0FAD0E0F9D0E0F812000DED6480FD9B
:1017660030E7011CD583CAED33CC33F8D0E0A2E7CD
:081776001328C313CC13FD225C
:100ED2003A70FA83BCAAE9E43E81E0F8BF9DE9E6F4
:100EE2003F80000039283C1ABB9969663DA335E36F
:100EF200BF255DE73FC90FDB418DDBCCC44936EE30
:100F020045C9913FC5B0F83D3F800000C317F53495
:100F1200452FFA73C60AFDDD120FB304A2E1920057
:100F22001420E015900ED274041205398020120F9D
:100F3200B330E102B20020E0EB785E1206B7900E09
:100F4200E67404120539785E12069A1200FEED4C20
:100F52006007300004EC6480FC22120FB3C0E0781A
:100F62005E1206B7900F0A7403120539785E1206F4
:100F72009A1200FE785EE2CCF208E2CDF208E2CEEE
:100F8200F208E2CFF2900EFA7403120539D0827899
:100F92005E12069AE58230E007120207B20080AEC6
:100FA200EFCBFFEECAFEEDC9FDECC8FC12020780D2
:100FB2009DED33EC547FCC33920024605007D0E097
:100FC200D0E00203287B837AF97922783E1200FE70
:100FD200EDF933ECF83324815011EFFBEEFA1203F2
:100FE200D01202B5ECB2E7FC12000DED33EC336027
:100FF2002F2403F8C313FCED92E7FDE82481E450AB
:101002001FECF8EDF9EEFAEFFB1203D0EF04C2E0A9
:10101200FCF5821202BFECB2E7FC12000DE582037E
:10102200FAED33EC3360071413FCED92E7FDEA228C
:10103200785E1206B7E4FFFE7D807C3F785EE2FBBD
:1010420008E2F908E2FA08E2CBF8120357700578D1
:101052005E02117E785EE2FC08E2FD08E2FE08E232
:10106200FF12033DFB08E2FC08E2FD08E2FE08E293
:10107200FF12033DFFB40108E4FFFE7D807C3F22A6
:10108200EF64046029EB64046024EBB4012EE4FFF6
:10109200FEFDFC7862E2FB08E2F908E2FA08E2CB24
:1010A200F812035760084006E4FFFEFDFC22786256
:1010B2001206C3FFFFFFFF786202117EE47866F238
:1010C20008F2FFFEFDFC785EE2FB08E2F908E2FAB4
:1010D20008E2CBF8120357505D7862E2FC08E2FDA9
:1010E20008E2FE08E2FF1203D07866EEF208EFF2A1
:1010F200FDCCEECCEC1202BAECC0E0C9EDC9CAEEEE
:10110200CACBEFCB7862E2FC08E2FD08E2FE08E21D
:10111200FFD0E0F8120009E4FBFAF9F81203577065
:101122008D785EE2FC08E2FD08E2FE08E2FF1202B0
:10113200A4785E1206B7785EE2FC08E2FD08E2FEE1
:1011420008E2FF1214477862E2FB08E2F908E2FAC9
:1011520008E2CBF81200FE1217B678621206B778D0
:1011620067E230E0157862E2FC08E2FD08E2FE0880
:10117200E2FF1202A478621206B77862E2FC08E289
:08118200FD08E2FE08E2FF2275
:1002F300E9D2E7C933E833F892D5EDD2E7CD33EC51
:0703030033FC5002B2D522C9
:10030A00EC30E7100FBF000C0EBE00080DBD000454
:10031A000BEB6014A2D5EB13FCED92E7FD2274FF00
:10032A00FCFDFEFF22E480F8A2D574FF13FC7D8059
:03033A00E480EF6D
:10033D00ED33EC33601004700FED547F70057402D3
:0A034D0092E0227404220422E4224C
:1003570074F8CC6480CCC86480C8F58204604FC34D
:10036700EB9FF5F0EA9E42F0E99D42F0E89C45F0EC
:10037700603C501DE5825FFFE582D313CB5BCBF476
:100387002B5582FB50280ABA002409B9002008809F
:100397001DE5825BFBE582D313CF5FCFF4C3132F39
:1003A7005582FF50090EBE00050DBD00010CC3EBC1
:1003B7009FF5F0EA9E42F0E99D42F0E89C45F06027
:0903C70007CC4820E701B3EC2249
:1003D000EDD2E7CD33EC3392D524814006E4FFFE25
:1003E000FDFC22FCE4CFCECDCC24E0501174FF8084
:1003F000EDC3CC13CCCD13CDCE13CECF13CF047021
:07040000F030D5DE020670AA
:10040700F920E72824F950037907E4F42402FB18BC
:10041700DBFDE224FB5014E9600DE4F218E204F27C
:0F042700B40A08E4F2D9F57401F20A22C2D52210
:10043600ED33EC3392D5FA602AB4FF33EDC2E77B95
:10044600FF60067A04795BE4227A04796420D50495
:100456007A04795F224E614E002B494E46002D49A3
:100466004E4600E47A08F208DAFC7B00740722E8BC
:10047600C0E0ECC0E0EDC0E0EEC0E0EFC0E0EA7541
:10048600F010A4CAABF075F04DA42BFBE435F0FCDC
:10049600EA2410FAEB34C5FBEC34D9FCEDC2E7FFD5
:1004A60075F056A4F42411C5F0F434C58FF0A42ACF
:1004B600E5F03BE43CF220E7141205B6D0E0FFD0AD
:1004C600E0FED0E0FDD0E0FC1202078014F4041236
:1004D60005B6D0E0FFD0E0FED0E0FDD0E0FC120093
:1004E600FED0E0F8E2FAEDD2E7CD33EC332482FB1E
:1004F600E4C3CF33CFCE33CECD33CD33DBF37B075F
:1005060075F00A846004F2081B0AE5F0F2088FF021
:10051600740AA4FFACF08EF0740AA42CFEACF05062
:10052600010C8DF0740AA42CFDE435F0F208DBDE34
:0305360074072225
:10053900C0E0EFFBEEFAEDF9ECF81200FED0E0F5C1
:10054900F0EFFBEEFAEDF9ECF812068AA3A3A3A3E8
:10055900E8C0E0E9C0E0EAC0E0EBC0E0C0F01200AA
:10056900FE1206A7A3A3A3A312000DD0F0D0E0FBAF
:0D057900D0E0FAD0E0F9D0E0F8D5F0D422BF
:100586003F8000004120000042C80000447A00007D
:10059600461C400047C35000497424004B189680FF
:1005A6004CBEBC205A0E1BCA6753C21C749DC5AEF6
:1005B600FB60065407601C23231205E4EB543860E5
:1005C600091205D01205DF1200FEECF8EDF9EEFA7D
:1005D600EFCB22EB1205DF80F1543803241C900583
:1005E60086FE93FC0EEE93FD0EEE930ECE93FF2247
:03000000021818CB
:0C181800787FE4F6D8FD75812102185F8E
:1005F600BB010689828A83E0225002E722BBFE0203
:09060600E32289828A83E4932235
:10060F00BB010CE58229F582E5833AF583E02250A0
:10061F0006E92582F8E622BBFE06E92582F8E222EA
:0D062F00E58229F582E5833AF583E4932204
:10063C00BB010689828A83F0225002F722BBFE019D
:02064C00F32297
:10064E00F8BB010DE58229F582E5833AF583E8F0E2
:10065E00225006E92582C8F622BBFE05E92582C88E
:02066E00F22276
:0E067000C3E49FFFE49EFEE49DFDE49CFC229B
:0C067E00E2FC08E2FD08E2FE08E2FF22B8
:10068A00E493FC740193FD740293FE740393FF22B6
:0D069A00E2FB08E2F908E2FA08E2CBF822E0
:1006A700E493F8740193F9740293FA740393FB22A9
:0C06B700ECF208EDF208EEF208EFF2227F
:1006C300D083D082E493F208740193F20874029306
:0906D300F208740393F27404733D
:1006DC00FAE2FB0808E2F925F0F218E2CA3AF22233
:0906EC00EBF208EAF208E9F2223F
:1006F500D083D082F8E4937012740193700DA3A394
:1007050093F8740193F5828883E4737402936860A7
:06071500EFA3A3A380DFA7
:101D7E00EFB40A07740D121D89740A309811A899D0
:101D8E00B8130CC2983098FDA899C298B811F630C5
:071D9E0099FDC299F599229D
:101E2400EFC394414005EF945B400BEFC3946140D2
:0B1E340008EF947B5003D38001C32211
:0F1EF800EFC394304007EF943A50028001C322A9
:10071B00E3F5F009E208B5F06D606B80F3E3F5F0FB
:10072B0009E608B5F060605E80F387F009E608B56E
:10073B00F054605280F487F009E208B5F048604647
:10074B0080F488828C8387F009E0A3B5F03860369B
:10075B0080F488828C8387F009E493A3B5F027603B
:10076B002580F388828C83E3F5F009E0A3B5F016BE
:10077B00601480F388828C83E3F5F009E493A3B5CE
:10078B00F004600280F2020846808580E7808E804C
:10079B00D2803C8015806C807E809B80B5808B8066
:1007AB00A1804F8070803A02085289828A83ECFACA
:1007BB00E493F5F0A3C8C582C8CCC583CCE493A35E
:1007CB00C8C582C8CCC583CCB5F070606E80E1899A
:1007DB00828A83E493F5F0A3E208B5F05E605C8057
:1007EB00F289828A83E0F5F0A3E608B5F04D604B01
:1007FB0080F389828A83E0F5F0A3E208B5F03C60D0
:10080B003A80F389828A83E493F5F0A3E608B5F086
:10081B002A602880F2805389828A83ECFAE493F56C
:10082B00F0A3C8C582C8CCC583CCE0A3C8C582C819
:10083B00CCC583CCB5F004600280E27FFFB5F0023B
:10084B000F2240027F012289828A83ECFAE0F5F0C5
:10085B00A3C8C582C8CCC583CCE0A3C8C582C8CC0D
:10086B00C583CCB5F0D560D380E389828A83ECFA5B
:10087B00E0F5F0A3C8C582C8CCC583CCE493A3C86C
:10088B00C582C8CCC583CCB5F0B160AF80E288F02F
:10089B00ED2402B4040050A3F582EB2402B404004F
:0B08AB0050992323458223900794738B
:101A1F007848EBF208EAF208E9F2E47850F208F2BB
:101A2F00784E08E2FF24FFF218E2FE34FFF2EF4E89
:101A3F00603E784BE2FB08E2FA08E2F91205F6FF86
:101A4F007848E2FB08E2FA08E2F9785008E2FD2450
:101A5F0001F218E2FC3400F28D828C83EF12064EF5
:101A6F00EF60BD784DE22401F218E23400F280B04D
:0B1A7F007848E2FB08E2FA08E2F922D6
:101E9E00E4FFFE1205F6600C0FEF70010E09E970FB
:051EAE00F20A80EF22A2
:10182400021D4FE493A3F8E493A34003F68001F26E
:1018340008DFF48029E493A3F85407240CC8C333C5
:10184400C4540F4420C8834004F456800146F6DF94
:10185400E4800B0102040810204080901E58E47EAE
:10186400019360BCA3FF543F30E509541FFEE49389
:10187400A360010ECF54C025E060A840B8E493A350
:10188400FAE493A3F8E493A3C8C582C8CAC583CA7B
:10189400F0A3C8C582C8CAC583CADFE9DEE780BE33
:011E70000071
:00000001FF
